S01200004F7064726163687442352E7372656366
S113000045C0000058C0000056C0000054C00000A5
S113001052C0000050C000004EC000004CC00000A0
S11300204AC0000048C0000046C0000044C00000B0
S113003042C0000040C000003EC000003CC00000C0
S11300403AC0000038C0000036C0000034C00000D0
S113005032C0000030C000002EC000002CC00000E0
S11300602AC0000028C0000026C0000024C00000F0
S113007022C0000020C000001EC000001CC0000000
S11300801AC0000018C0000016C0000011241FBED2
S1130090CFEFD0E1DEBFCDBF11E0A0E0B1E0E4E4FA
S11300A0F1E000E00BBF02C007900D92AA30B10747
S11300B0D9F741D045C0A4CF85B385BB8FEC97E079
S11300C00197F1F700C0000085B385BB0895CF9375
S11300D08FEF84BB15BAC0E2C5BBEEDFC5BBECDF56
S11300E080E885BBE9DF15BAE7DF80EF85BBE4DF95
S11300F015BAE2DF80E685BBDFDFCF910895CF93A9
S1130100C82F85BB85B3806185BBD6DFC295C07F10
S1130110C5BB85B3806185BBCFDFCF910895CF93F5
S1130120DF93EC0102C0EBDF219688818111FBCFC4
S1130130DF91CF910895CBDF80E091E0F0DFFFCF36
S1070140F894FFCF5D
S10D01444A6F65204D616D610000F3
S9030000FC
