S01200004F7064726163687442352E7372656366
S113000045C0000058C0000056C0000054C00000A5
S113001052C0000050C000004EC000004CC00000A0
S11300204AC0000048C0000046C0000044C00000B0
S113003042C0000040C000003EC000003CC00000C0
S11300403AC0000038C0000036C0000034C00000D0
S113005032C0000030C000002EC000002CC00000E0
S11300602AC0000028C0000026C0000024C00000F0
S113007022C0000020C000001EC000001CC0000000
S11300801AC0000018C0000016C0000011241FBED2
S1130090CFEFD0E1DEBFCDBF11E0A0E0B1E0E4E8F6
S11300A0F1E000E00BBF02C007900D92AA30B10747
S11300B0D9F75BD065C0A4CF85B3886085BB8FECCE
S11300C097E00197F1F700C0000085B3877F85BBF7
S11300D08FEC97E00197F1F700C000000895CF93EB
S11300E0C82F85BB85B3846085BBE6DFC295C07F1E
S11300F0C5BB85B3846085BBDFDFCF910895CF9303
S1130100DF93EC0102C02196EADF88818111FBCFE5
S1130110DF91CF910895CF93C82F85BB85B38B7F93
S113012085BBCADFC295C07FC5BB85B38B7F85BB4A
S1130130C3DFCF910895CF938FEF84BB15BAC0E28C
S1130140C5BBBADFC5BBB8DF80E885BBB5DF15BA70
S1130150B3DF80EF85BBB0DF15BAAEDF80E685BBC9
S1130160ABDF82E0D8DFCF910895E5DF80E091E056
S1130170C6DF8FE19EE40197F1F700C00000F9CFDC
S1070180F894FFCF1D
S10D01844A6F65204D616D610000B3
S9030000FC
