S01200004F7064726163687442322E7372656369
S113000045C0000054C000007DC000004FC0000087
S11300104DC000004BC0000049C0000047C00000B4
S113002045C0000043C0000041C000003FC00000C4
S11300303DC000003BC0000039C0000037C00000D4
S113004035C0000033C0000031C000002FC00000E4
S11300502DC000002BC0000029C0000027C00000F4
S113006025C0000023C0000021C000001FC0000004
S11300701DC000001BC0000019C0000017C0000014
S113008015C0000013C0000011C0000011241FBEE1
S1130090CFEFD0E1DEBFCDBF21E0A0E0B1E001C0F1
S11300A01D92A230B207E1F75AD066C0A9CF1F92C1
S11300B00F920FB60F9211242F933F934F935F9398
S11300C08F939F938091000190910101019712F405
S11300D087E090E0909301018093000121E030E0FB
S11300E0A90102C0440F551F8A95E2F745BB9F91B1
S11300F08F915F914F913F912F910F900FBE0F9071
S11301001F9018951F920F920FB60F9211242F93E0
S11301103F934F935F938F939F93809100019091AE
S1130120010101968830910514F080E090E09093ED
S113013001018093000121E030E0A90102C0440FD5
S1130140551F8A95E2F745BB9F918F915F914F911F
S11301503F912F910F900FBE0F901F9018958FEF26
S113016084BB11BAEAE6F0E080818B60808389B7B2
S10F0170836089BF7894FFCFF894FFCF20
S9030000FC
